:030000000204A552
:0C04A500787FE4F6D8FD7581440204EC79
:1006F400E4F53FC2B71207C1D2B7E4F53F30B711F2
:10070400053FE53FD3940540037F01221207CA80C9
:03071400EC7F0077
:0107170022BF
:020623008F3F07
:10062500E4F540F541F542F543F542F543C2B7051A
:1006350041E54170020540E53F1392B71207B8D274
:10064500B7E53FC313F53F0543E54370020542C3D4
:080655009408E542940040D531
:01065D00227A
:10053100E4F53FF540F541F542F543F544F54375E2
:100541004408C2B70542E54270020541D2B70542EF
:10055100E542700205410542E54270020541A2B73C
:10056100E433F540C43333335480FFE53FC3134FC5
:10057100F53F1207CFE544154470021543D3E54416
:0A0581009400E543940050BAAF3F28
:01058B00224D
:100769001206F412079E7FCC1206237F4412062339
:030779000207ABC9
:10078E001206F412079E7FCC1206237FBE020623AA
:0407CA007F06DFFEC9
:0107CE002208
:0407CF007F15DFFEB5
:0107D3002203
:0807B8007F017E20DEFEDFFA66
:0107C0002216
:0807C1007F537E03DEFEDFFA28
:0107C900220D
:0C079E007F017E8E7D02DDFEDEFADFF6BC
:0107AA00222C
:0C07AB007FA77E887D0FDDFEDEFADFF602
:0107B700221F
:1005DD0041542B4349504D55583D310D0A0041545E
:1005ED002B4349505345525645523D310D0A00415A
:1005FD00542B43495053454E443D302C350D0A0084
:10060D00FEFDFBF7EFDFBF7F73D658FF5854521234
:06061D00000000000000D7
:1006930001080020280900000000000000000000FD
:1006A3000000000000000000000000000000000047
:1006B3000000000000000000000000000000013105
:0106C3000036
:10038A00E4F532F53378347C00FD7BFF7A06791D7B
:10039A00FE7F061202BB75362EC290120753120751
:1003AA00187BFF7A0579DD1207391207187BFF7A65
:1003BA000579EB12073912071875A055750801E57A
:1003CA001224CFB4090050F79003E075F003A4C5D6
:1003DA008325F0C583730203FB02040002040502AD
:1003EA00040902040D0203C90204120203C9020429
:1003FA001DE4F5A080C975A0FF80C4D29080C0C258
:10040A009080BC12077C80B77BFF7A0679151206AA
:10041A005E80AC12058C8E328F337C037DE812032A
:10042A0027EF2430F534AE32AF337C037DE8120374
:10043A00278C328D33AE32AF337C007D64120327B2
:10044A00EF2430F535AE32AF337C007D64120327DA
:10045A008C328D33AE32AF337C007D0A120327EF24
:10046A002430F537AE32AF337C007D0A1203278C75
:10047A00328D33E5332430F5387BFF7A0579FC1267
:10048A0007397F0A7E0012071C7B007A0079341232
:0B049A00073975127875A0550203C9E0
:040718007FE87E03F5
:10071C00D3EF9400EE940040137D017C8E7B02DBC2
:0C072C00FEDCFADDF6EF1F70E71E80E433
:01073800229E
:10000300E4FEFDC2B6C2B5EF1392B4EFC313FFD241
:0B001300B60D0DC2B60EBE08EED2B551
:01001E0022BF
:06065E008B3A8A3B893C47
:10066400E4F53DE4FCEC90060D93F580AB3AAA3B2F
:10067400A93C8C827583001202FAFF120003E4FF86
:0F0684001200030CBC08DE053DE53DB4C8D522CD
:030023000206C50D
:1006C500C0E0C0D075D000C000C2AF309818C29845
:1006D500E508B4011174092531F8A6990531E599A4
:0F06E500B40A03753100D2AFD000D0D0D0E032CC
:10075300758920759850758DF3858D8BE4F587D257
:06076300AFD2ACD28E22E1
:10077C00D2957F017E0012071CC2957F017E00027C
:02078C00071C48
:10073900C2AF1202E16010F5993099FDC2997401B6
:0A07490029F9E43AFA80EBD2AF225E
:10058C00E4FFFEF53AFDFCF53EF53DF53CF53B127E
:10059C00076912078E1205318F3A120531EFFEE50D
:1005AC003AFFFDAC06E4120131E4FBFA7980783DA8
:1005BC001200268F3E8E3D8D3C8C3BE4FFFE7DC8A9
:1005CC007C42AB3EAA3DA93CA83B12002612016A14
:0105DC0022FC
:10002600EC4D6011E8497017ED33EC3304600DE4D4
:10003600FCFFFEFD22E933E8330470F80201D61214
:1000460001A158046009E4CC248150062850090215
:1000560001E02840030201DDC0E0EB4A7044B980AC
:1000660006D0E0FB0201CCEF4E701CBD8008EBFF12
:10007600EAFEE9FD80EBE98DF0A4FEE5F002010F52
:10008600E9CDF9EAFEEBFFEF89F0A4FCE5F0CE89B5
:10009600F0A42EFFE435F0CD89F0A42DFEE435F072
:1000A6008067EF4E7005BD80D780C3EF8BF0A4ACA0
:1000B600F0EE8BF0A42CFCE435F0F8EF8AF0A42CDB
:1000C600E5F038FCE433CB8DF0A42CFCE5F03BF8EE
:1000D600EE8AF0A42CFCE5F038F8E433CF89F0A4DE
:1000E6002CFCE5F038CF3400CE89F0A42FFFE5F0E4
:1000F6003EFEE433C98DF0A42EFEE5F039CD8AF03C
:10010600A42FFFE5F03EFEE43DFD33D0E0FB5007B3
:100116000BBB000F0201E0EC2CFCEF33FFEE33FECD
:06012600ED33FD0201B8FB
:10012C0075F020800E75F010800575F0087D007E4E
:10013C00007F003392D530D50312037CEC33401092
:10014C00EF33FFEE33FEED33FDEC33FCD5F0ED2257
:0E015C00E5F0247EA2D513CC92E7CDCEFF2293
:10016A00EDD2E7CD33EC3392D524814006E4FFFE8D
:10017A00FDFC22FCE4CFCECDCC24E0501174FF80EC
:10018A00EDC3CC13CCCD13CDCE13CECF13CF047089
:07019A00F030D5DE02037C0A
:1001A100E9D2E7C933E833F892D5EDD2E7CD33ECA4
:0701B10033FC5002B2D5221D
:1001B800EC30E7100FBF000C0EBE00080DBD0004A8
:1001C8000BEB6014A2D5EB13FCED92E7FD2274FF54
:1001D800FCFDFEFF22E480F8A2D574FF13FC7D80AD
:0301E800E480EFC1
:1004B10002038AE493A3F8E493A34003F68001F2D4
:1004C10008DFF48029E493A3F85407240CC8C3334C
:1004D100C4540F4420C8834004F456800146F6DF1B
:1004E100E4800B0102040810204080900693E47E12
:1004F100019360BCA3FF543F30E509541FFEE49310
:10050100A360010ECF54C025E060A840B8E493A3D6
:10051100FAE493A3F8E493A3C8C582C8CAC583CA01
:10052100F0A3C8C582C8CAC583CADFE9DEE780BEB9
:0106C4000035
:1001EB00E709F608DFFA8046E709F208DFFA803EF6
:1001FB0088828C83E709F0A3DFFA8032E309F608E3
:10020B00DFFA8078E309F208DFFA807088828C834A
:10021B00E309F0A3DFFA806489828A83E0A3F608FE
:10022B00DFFA805889828A83E0A3F208DFFA804CD8
:10023B0080D280FA80C680D4806980F280338010AF
:10024B0080A680EA809A80A880DA80E280CA803318
:10025B0089828A83ECFAE493A3C8C582C8CCC58390
:10026B00CCF0A3C8C582C8CCC583CCDFE9DEE78060
:10027B000D89828A83E493A3F608DFF9ECFAA9F0DF
:10028B00EDFB2289828A83ECFAE0A3C8C582C8CC35
:10029B00C583CCF0A3C8C582C8CCC583CCDFEADE4E
:1002AB00E880DB89828A83E493A3F208DFF980CCB0
:1002BB0088F0EF60010E4E60C388F0ED2402B404A9
:1002CB000050B9F582EB2402B4040050AF23234550
:0602DB00822390023B7338
:1002E100BB010689828A83E0225002E722BBFE021B
:0902F100E32289828A83E493224E
:1002FA00BB010CE58229F582E5833AF583E02250B9
:10030A0006E92582F8E622BBFE06E92582F8E22202
:0D031A00E58229F582E5833AF583E493221C
:10032700BC000BBE0029EF8DF084FFADF022E4CCBA
:10033700F875F008EF2FFFEE33FEEC33FCEE9DEC83
:10034700984005FCEE9DFE0FD5F0E9E4CEFD22EDC9
:10035700F8F5F0EE8420D21CFEADF075F008EF2F13
:10036700FFED33FD4007985006D5F0F222C398FD04
:050377000FD5F0EA22A1
:0E037C00C3E49FFFE49EFEE49DFDE49CFC2292
:00000001FF
