:03000000020DB638
:0C0DB600787FE4F6D8FD75811F020B4B1E
:100C450077772E7A68756C616F7368692E6F726736
:100C550000575559414F57414E472035314D435562
:100C6500007368656E7A68656E2C204348494E416D
:020C750021005C
:100B4B0012093B120D22E4FBFDFF120AD97B01E4D3
:100B5B00FD7F12120AD97B02E4FD7F24120AD97B96
:100B6B0003E4FD7F36120AD97B04E4FD7F48120AA9
:100B7B00D97B05E4FD7F5A120AD97BFF7A0C7945A4
:100B8B00750D107D02E4FF120C057BFF7A0C795674
:100B9B00750D107D04E4FF120C057BFF7A0C796652
:0C0BAB00750D107D06E4FF120C0580FEA5
:100003000000000000000000002F000000000700B7
:10001300070000147F147F1400242A7F2A12006231
:1000230064081323003649552250000005030000DD
:1000330000001C224100000041221C000014083E65
:1000430008140008083E0808000000A0600000082B
:10005300080808080000606000000020100804027F
:10006300003E5149453E0000427F4000004261513D
:100073004946002141454B31001814127F100027D7
:1000830045454539003C4A4949300001710905039A
:1000930000364949493600064949291E00003636CB
:1000A300000000005636000000081422410000142E
:1000B300141414140000412214080002015109060B
:1000C30000324959513E007C1211127C007F49498C
:1000D3004936003E41414122007F4141221C007FBD
:1000E30049494941007F09090901003E4149497ACB
:1000F300007F0808087F0000417F41000020404145
:100103003F01007F08142241007F40404040007FB0
:10011300020C027F007F0408107F003E4141413EF4
:10012300007F09090906003E4151215E007F09193C
:1001330029460046494949310001017F0101003F39
:100143004040403F001F2040201F003F4038403FB9
:10015300006314081463000708700807006151491D
:10016300454300007F41410000552A552A550000B0
:1001730041417F000004020102040040404040402E
:10018300000001020400002054545478007F4844C6
:10019300443800384444442000384444487F0038FD
:1001A3005454541800087E0901020018A4A4A47C26
:1001B300007F080404780000447D400000408084F0
:1001C3007D00007F102844000000417F4000007C38
:1001D30004180478007C0804047800384444443844
:1001E30000FC242424180018242418FC007C080490
:1001F300040800485454542000043F444020003C69
:100203004040207C001C2040201C003C4030403CEF
:10021300004428102844001CA0A0A07C004464547F
:100223004C441414141414140000000000000000C3
:100233000000000000000000000000F800000000C3
:10024300000000333000000000100C06100C060004
:10025300000000000000000040C07840C07840006B
:10026300043F04043F040400007088FC08300000CD
:10027300001820FF211E0000F008F000E018000025
:1002830000211C031E211E0000F0088870000000DE
:100293001E2123241927211010160E000000000030
:1002A3000000000000000000000000E0180402004D
:1002B300000000071820400000020418E0000000BE
:1002C3000040201807000000404080F080404000BC
:1002D3000202010F01020200000000F00000000012
:1002E3000101011F010101000000000000000000E6
:1002F30080B070000000000000000000000000005B
:1003030000010101010101010000000000000000E3
:10031300003030000000000000000000806018047E
:10032300006018060100000000E010080810E0005B
:10033300000F102020100F00001010F80000000024
:100343000020203F2020000000700808088870006B
:1003530000302824222130000030088888483000EB
:100363000018202020110E000000C02010F800000B
:1003730000070424243F240000F8088888080800A4
:100383000019212020110E0000E0108888180000B9
:10039300000F112020110E0000380808C83808008B
:1003A3000000003F0000000000708808088870000B
:1003B300001C222121221C0000E010080810E0008C
:1003C3000000312222110F00000000C0C000000015
:1003D300000000303000000000000080000000003A
:1003E3000000806000000000000080402010080032
:1003F30000010204081020004040404040404000FB
:1004030004040404040404000008102040800000D5
:100413000020100804020100007048080808F000DA
:100423000000003036010000C030C828E810E000AA
:100433000718272423140B000000C038E000000035
:10044300203C23020227382008F88888887000009F
:10045300203F202020110E00C03008080808380073
:10046300071820202010080008F808080810E000EA
:10047300203F202020100F0008F88888E80810008B
:10048300203F20202320180008F88888E80810005F
:10049300203F200003000000C03008080838000097
:1004A30007182020221E020008F808000008F80898
:1004B300203F210101213F20000808F8080800001F
:1004C3000020203F2020000000000808F808080052
:1004D300C08080807F00000008F888C028180800CA
:1004E300203F20012638200008F808000000000003
:1004F300203F20202020300008F8F800F8F80800FA
:10050300203F003F003F200008F830C00008F808F3
:10051300203F200007183F00E01008080810E00003
:100523000F10202020100F0008F808080808F0001A
:10053300203F210101010000E01008080810E0003D
:100543000F18242438504F0008F8888888887000D2
:10055300203F2000030C3020007088080808380072
:100563000038202121221C00180808F80808180068
:100573000000203F2000000008F808000008F808E9
:10058300001F202020201F000878880000C838089A
:10059300000007380E010000F80800F80008F80012
:1005A300033C0700073C03000818688080681808AC
:1005B30020302C03032C30200838C800C83808002A
:1005C3000000203F2000000010080808C838080079
:1005D3002038262120201800000000FE020202001D
:1005E3000000007F40404000000C30C000000000CD
:1005F300000000010638C00000020202FE000000F5
:10060300004040407F00000000000402020204009A
:1006130000000000000000000000000000000000D7
:1006230080808080808080800002020400000000BF
:1006330000000000000000000000808080800000B7
:100643000019242222223F2008F8008080000000A5
:10065300003F112020110E00000000808080000068
:10066300000E112020201100000000808088F80077
:10067300000E112020103F200000808080800000A9
:10068300001F222222221300008080F0888888180D
:100693000020203F20200000000080808080800018
:1006A300006B94949493600008F8008080800000AD
:1006B300203F210000203F20008098980000000088
:1006C3000020203F202000000000008098980000B8
:1006D30000C08080807F000008F8000080808000D8
:1006E300203F24022D302000000808F800000000FD
:1006F3000020203F202000008080808080808000B8
:10070300203F20003F20003F808000808080000049
:10071300203F210000203F200000808080800000D7
:10072300001F202020201F00808000808000000008
:1007330080FFA12020110E00000000808080800037
:10074300000E112020A0FF80808080008080800028
:1007530020203F2120000100000080808080800055
:100763000033242424241900008080E080800000CA
:100773000000001F20200000808000000080800017
:10078300001F202020103F20808080000080808078
:1007930000010E3008060100808000800080808008
:1007A3000F300C030C300F0000808000808080002D
:1007B3000020312E0E312000808080000080808058
:1007C30080818E7018060100008080808080800008
:1007D3000021302C2221300000000000807C020226
:1007E30000000000003F404000000000FF00000048
:1007F30000000000FF0000000002027C80000000F7
:100803000040403F00000000000601010202040412
:10081300000000000000000080A0908E888888FF00
:10082300888888888880800020201008040201FFBF
:10083300010204081020200004040484E43C27245B
:10084300242424E40404040004020100FF09090928
:100853000949897F0000000000FE22FE00FE22FEFF
:1008630000FC162584FC0000601F22BF403F82FF6E
:100873000013121252827E00403C10FF1010201011
:100883008F7808F808F80000020602FF010104420D
:1008930021184681403F000002FE9292FE020010A2
:1008A3001116F01413100000101F0808FF048141F3
:1008B300310D030D3141810000FE0222428272029A
:1008C3002242827202FE000000FF100806010E1091
:1008D3000806014E807F000020202020202020FFDA
:1008E300202020202020200080804020100C0300A6
:1008F300030C102040808000404042CC001010FFC9
:10090300101010FF101000000000003F1189611F3C
:10091300010101FF01010100201808EA2C28282FFA
:1009230028282CEA08281800404048494949497FAB
:080933004949494948404000D0
:090DC200D2A1D2A0C2A0C2A1225C
:070DCB00D2A1C2A0D2A022B8
:0B0D8A00120D03120D95AF04120D03B3
:050D9500D2A1C2A12261
:070CFC00AC07120DC27F7866
:100D0300C2A1E4FEAD07530580BD8004D2A08002DA
:0E0D1300C2A0EF25E0FFD2A1C2A10EBE08E6ED
:010D210022AF
:0E0D9A00120CFC120D95E4FF120D8A020DCB17
:0E0DA800120CFC120D957F40120D8A020DCB2D
:100CA400E924B0FFE433FEE4FDFC120CBFE4FDFCD8
:0B0CB400FFFE120CBF7F10E4FDFCFEF1
:100CBF00AB07AA06ED4C6003020DA8AF03120D9A05
:010CCF002202
:100CD000A907ED24B0FFE433FEE4FDFC120CBFE9EC
:100CE00054F0C4540F7E004410FFE4FDFC120CBF0E
:0C0CF000E9540FFF7E00E4FDFC020CBF85
:100D62007F8D120CBBE4FDFC7F14FE120CBFE4FD70
:070D7200FC7FAFFE020CBF85
:100D7900E4FDFC7F8D120CB5E4FDFC7FAEFE020C98
:010D8900BFAA
:100D2200E4F9120CA4E4F5087D017C00E4FFFE1254
:0F0D32000CBF0508E508C3948040ED09B908E33C
:010D4100228F
:100D4200E4F9120CA4E4F51F7D017C00E4FFFE121D
:0F0D52000CBF051FE51FC3948040ED09B908E3EE
:010D6100226F
:040A1B008F0F8D109C
:100A1F00E4F513F9EB24E0F513E50FD3947F4007CA
:100A2F00E4F50F05100510E51264107069AD10AFF5
:100A3F000F120CD0E4F975F010E513A429F582E438
:100A4F0035F0F583E582242BF582E5833402F583B7
:100A5F00E493FF7E007D017C00120CBF09B908D61C
:100A6F00E51004FDAF0F120CD0E4F975F010E5138B
:100A7F00A429F582E435F0F583E5822433F582E588
:100A8F00833402F583E493FF7E007D017C00120C1A
:100A9F00BF09B908D622AD10AF0F120CD0E4F9750B
:100AAF00F006E513A42403F582E5F03400F583E5A1
:100ABF008229F582E43583F583E493FF7E007D017F
:090ACF007C00120CBF09B906D627
:010AD80022FB
:0A0C05008F088D098B0A8A0B890CF9
:100C0F00E4F50EAB0AAA0BA90C850E8275830012B0
:100C1F000C77FB6020850D12AD09AF08120A1B740B
:100C2F00082508F508D394784007E4F50805090569
:050C3F0009050E80CE46
:010C4400228D
:060AD9008F088D098B0A55
:100ADF00E4F50B120CD0E4F975F020E50AA4241B01
:100AEF00F582E5F03408F583E58229F582E4358354
:100AFF00F583E493FF7E007D017C00120CBF050B94
:100B0F0009B910D4E50904FDAF08120CD0E4F9754A
:100B1F00F020E50AA4242BF582E5F03408F583E5EF
:100B2F008229F582E43583F583E493FF7E007D010E
:0B0B3F007C00120CBF050B09B910D49C
:010B4A002288
:040BB7008F148B16F6
:100BBB00E4F51BF51C8D1EE51EC39517503BAD1EB2
:100BCB00AF14120CD085141DE51DC395165026AB22
:100BDB0018AA19A91A051CE51CAE1B7002051B14DB
:100BEB00F5828E83120C77FF7E007D017C00120C48
:090BFB00BF051D80D3051E80BE5C
:010C040022CD
:10093B00E4FDFC7FAEFE120CAEE4FDFC7F40FE122C
:10094B000CBFE4FDFC7FB0FE120CBFE4FDFC7F810D
:10095B00FE120CBFE4FDFC7FFFFE120CBFE4FDFC9E
:10096B007FA1FE120CBFE4FDFC7FA6FE120CBFE4C0
:10097B00FDFC7FA8FE120CBFE4FDFC7F3FFE120CBA
:10098B00BFE4FDFC7FC8FE120CBFE4FDFC7FD3FE71
:10099B00120CBFE4FDFCFFFE120CBFE4FDFC7FD587
:1009AB00FE120CBFE4FDFC7F80FE120CBFE4FDFCCD
:1009BB007FD8FE120CBFE4FDFC7F05FE120CBFE4DA
:1009CB00FDFC7FD9FE120CBFE4FDFC7FF1FE120C87
:1009DB00BFE4FDFC7FDAFE120CBFE4FDFC7F12FED0
:1009EB00120CBFE4FDFC7FDBFE120CBFE4FDFC7FB1
:1009FB0030FE120CBFE4FDFC7F8DFE120CBFE4FD3C
:100A0B00FC7F14FE120CBFE4FDFC7FAFFE020CBF9B
:100C7700BB010CE58229F582E5833AF583E0225032
:100C870006E92582F8E622BBFE06E92582F8E2227C
:0D0C9700E58229F582E5833AF583E4932296
:00000001FF
